{
  "transactions": [
    {
      "hash": null,
      "transactionType": "CALL",
      "contractName": null,
      "contractAddress": "0x006a8462e9068b4012db67f19076912e0a4740c0",
      "function": "setIntentData(bytes32,uint8)",
      "arguments": [
        "0x0000000000000000000000000000000000000000000000001234567890abcdef",
        "1"
      ],
      "transaction": {
        "from": "0x1804c8ab1f12e6bbf3894d4083f33e07309d1f38",
        "to": "0x006a8462e9068b4012db67f19076912e0a4740c0",
        "gas": "0x17492",
        "value": "0x0",
        "input": "0x75a4315b0000000000000000000000000000000000000000000000001234567890abcdef0000000000000000000000000000000000000000000000000000000000000001",
        "nonce": "0x0",
        "chainId": "0x14a34"
      },
      "additionalContracts": [],
      "isFixedGasLimit": false
    },
    {
      "hash": null,
      "transactionType": "CALL",
      "contractName": null,
      "contractAddress": "0x006a8462e9068b4012db67f19076912e0a4740c0",
      "function": "clearIntentData()",
      "arguments": [],
      "transaction": {
        "from": "0x1804c8ab1f12e6bbf3894d4083f33e07309d1f38",
        "to": "0x006a8462e9068b4012db67f19076912e0a4740c0",
        "gas": "0x8c37",
        "value": "0x0",
        "input": "0xd2a3740f",
        "nonce": "0x1",
        "chainId": "0x14a34"
      },
      "additionalContracts": [],
      "isFixedGasLimit": false
    }
  ],
  "receipts": [],
  "libraries": [],
  "pending": [],
  "returns": {},
  "timestamp": 1770195845536,
  "chain": 84532,
  "commit": "1fbf955"
}